{
  "contractName": "AttackVector",
  "abi": [
    {
      "inputs": [],
      "stateMutability": "nonpayable",
      "type": "constructor"
    },
    {
      "inputs": [
        {
          "internalType": "string",
          "name": "textToSet",
          "type": "string"
        }
      ],
      "name": "setTextField",
      "outputs": [],
      "stateMutability": "nonpayable",
      "type": "function"
    },
    {
      "inputs": [],
      "name": "getTextField",
      "outputs": [
        {
          "internalType": "string",
          "name": "",
          "type": "string"
        }
      ],
      "stateMutability": "view",
      "type": "function",
      "constant": true
    },
    {
      "inputs": [],
      "name": "getGoodValidatedText",
      "outputs": [
        {
          "internalType": "string",
          "name": "",
          "type": "string"
        }
      ],
      "stateMutability": "view",
      "type": "function",
      "constant": true
    }
  ],
  "bytecode": "0x608060405234801561001057600080fd5b50610590806100206000396000f3fe608060405234801561001057600080fd5b50600436106100415760003560e01c8063252ad24914610046578063c4c84b75146100c3578063f051c2181461016b575b600080fd5b61004e610173565b6040805160208082528351818301528351919283929083019185019080838360005b83811015610088578181015183820152602001610070565b50505050905090810190601f1680156100b55780820380516001836020036101000a031916815260200191505b509250505060405180910390f35b610169600480360360208110156100d957600080fd5b8101906020810181356401000000008111156100f457600080fd5b82018360208201111561010657600080fd5b8035906020019184600183028401116401000000008311171561012857600080fd5b91908080601f0160208091040260200160405190810160405280939291908181526020018383808284376000920191909152509295506102c2945050505050565b005b61004e6102d9565b6000805460408051602060026001851615610100026000190190941693909304601f810184900484028201840190925281815260609361020c93919290918301828280156102025780601f106101d757610100808354040283529160200191610202565b820191906000526020600020905b8154815290600101906020018083116101e557829003601f168201915b505050505061036f565b156102a3576000805460408051602060026001851615610100026000190190941693909304601f810184900484028201840190925281815292918301828280156102975780601f1061026c57610100808354040283529160200191610297565b820191906000526020600020905b81548152906001019060200180831161027a57829003601f168201915b505050505090506102bf565b6040518060600160405280602981526020016105326029913990505b90565b80516102d590600090602084019061049e565b5050565b60008054604080516020601f60026000196101006001881615020190951694909404938401819004810282018101909252828152606093909290918301828280156103655780601f1061033a57610100808354040283529160200191610365565b820191906000526020600020905b81548152906001019060200180831161034857829003601f168201915b5050505050905090565b600081815b815181101561049257600082828151811061038b57fe5b01602001516001600160f81b0319169050600360fc1b81108015906103be5750603960f81b6001600160f81b0319821611155b1580156103f45750600360fc1b6001600160f81b03198216108015906103f25750603960f81b6001600160f81b0319821611155b155b80156104295750604160f81b6001600160f81b03198216108015906104275750602d60f91b6001600160f81b0319821611155b155b801561045e5750606160f81b6001600160f81b031982161080159061045c5750603d60f91b6001600160f81b0319821611155b155b80156104785750601760f91b6001600160f81b0319821614155b156104895760009350505050610499565b50600101610374565b5060019150505b919050565b828054600181600116156101000203166002900490600052602060002090601f016020900481019282601f106104df57805160ff191683800117855561050c565b8280016001018555821561050c579182015b8281111561050c5782518255916020019190600101906104f1565b5061051892915061051c565b5090565b5b80821115610518576000815560010161051d56fe4f68206e6f2c20736f6d656f6e6520707574206e61737479207465787420696e20686572652c212121a26469706673582212204dcd4ff775f503fd30f9885d2eb02d1bba89ad10febf604af9e1199d2b8a8cef64736f6c634300060c0033",
  "immutableReferences": {},
  "source": "// SPDX-License-Identifier: MIT\r\npragma solidity ^0.6.0;\r\n\r\n/// @author The Dark Jester\r\n/// @title A simple attack vector\r\ncontract AttackVector {\r\n  string private textField ;\r\n\r\n  constructor() public{\r\n      \r\n  }\r\n\r\n  /// Store `textToSet`.\r\n  /// @param textToSet the text to store\r\n  function setTextField(string memory textToSet) public {\r\n    textField = textToSet;\r\n  }\r\n\r\n  /// Return the stored textField.\r\n  /// @return the stored textField\r\n  function getTextField() public view returns (string memory) {\r\n    return textField;\r\n  }\r\n\r\n  function getGoodValidatedText() public view returns (string memory) {\r\n    if(checkString(textField)){\r\n        return textField;\r\n    }\r\n\r\n    return \"Oh no, someone put nasty text in here,!!!\";\r\n  }\r\n\r\n  function checkString(string memory str) private pure returns (bool){\r\n    bytes memory b = bytes(str);\r\n\r\n    for(uint i; i<b.length; i++){\r\n        bytes1 char = b[i];\r\n\r\n        if(\r\n            !(char >= 0x30 && char <= 0x39) &&\r\n            !(char >= 0x30 && char <= 0x39) && //9-0\r\n            !(char >= 0x41 && char <= 0x5A) && //A-Z\r\n            !(char >= 0x61 && char <= 0x7A) && //a-z\r\n            !(char == 0x2E) //.\r\n        )\r\n            return false;\r\n    }\r\n\r\n    return true;\r\n  }\r\n}",
  "sourcePath": "D:/code/Consensys/SolidityAttackVector/contracts/AttackVector.sol",
  "compiler": {
    "name": "solc",
    "version": "0.6.12+commit.27d51765.Emscripten.clang"
  },
  "schemaVersion": "3.3.0",
  "updatedAt": "2020-11-03T23:29:30.474Z",
  "networkType": "ethereum",
  "devdoc": {
    "author": "The Dark Jester",
    "kind": "dev",
    "methods": {
      "getTextField()": {
        "returns": {
          "_0": "the stored textField"
        }
      },
      "setTextField(string)": {
        "params": {
          "textToSet": "the text to store"
        }
      }
    },
    "title": "A simple attack vector",
    "version": 1
  },
  "userdoc": {
    "kind": "user",
    "methods": {
      "getTextField()": {
        "notice": "Return the stored textField."
      },
      "setTextField(string)": {
        "notice": "Store `textToSet`."
      }
    },
    "version": 1
  }
}